:020000040000FA
:100000000C9462000C948A000C948A000C948A0070
:100010000C948A000C948A000C948A000C948A0038
:100020000C948A000C948A000C948A000C948A0028
:100030000C948A000C948A000C948A000C948A0018
:100040000C94DE040C948A000C94AC040C9486048A
:100050000C948A000C948A000C948A000C948A00F8
:100060000C948A000C948A000000000024002700F1
:100070002A0000000000250028002B0000000000DE
:1000800023002600290004040404040404040202DA
:100090000202020203030303030301020408102007
:1000A0004080010204081020010204081020000012
:1000B0000008000201000003040700000000000027
:1000C0000000280511241FBECFEFD8E0DEBFCDBF52
:1000D00022E0A4E9B1E001C01D92A33CB207E1F720
:1000E00011E0A0E0B1E0E4EAF1E102C005900D9278
:1000F000A439B107D9F710E0C2E6D0E004C02197D7
:10010000FE010E94CA08C136D107C9F70E94E20564
:100110000C94D0080C94000096E0899FD001112423
:10012000A45CBD4F90967C936E935F9791E09196FF
:100130009C939197E091A902F091AA029091A80254
:10014000992339F0309751F0811108C080915802FD
:100150000994309719F05C968C91FACF0895AF927C
:10016000BF92CF92DF92EF92FF920F931F93CF93A4
:10017000DF936C017B018B01040F151FEB015E0106
:10018000AE18BF08C017D10759F06991D601ED919B
:10019000FC910190F081E02DC6010995892B79F73A
:1001A000C501DF91CF911F910F91FF90EF90DF90EC
:1001B000CF90BF90AF900895FC01538D448D252FB3
:1001C00030E0842F90E0821B930B541710F0CF96F1
:1001D000089501970895FC01918D828D981761F023
:1001E000A28DAE0FBF2FB11D5D968C91928D9F5F3A
:1001F0009F73928F90E008958FEF9FEF0895FC0119
:10020000918D828D981731F0828DE80FF11D858DCB
:1002100090E008958FEF9FEF0895FC01918D228D5E
:10022000892F90E0805C9F4F821B91098F739927E3
:1002300008958FE991E00E940D0121E0892B09F4D6
:1002400020E0822F089580E090E0892B29F00E9421
:10025000190181110C9400000895FC01A48DA80FD0
:10026000B92FB11DA35ABF4F2C91848D90E00196F8
:100270008F739927848FA689B7892C93A089B18918
:100280008C91837080648C93938D848D981306C0B9
:100290000288F389E02D80818F7D80830895EF921D
:1002A000FF920F931F93CF93DF93EC0181E0888F30
:1002B0009B8D8C8D98131AC0E889F989808185FF00
:1002C00015C09FB7F894EE89FF896083E889F989A2
:1002D00080818370806480839FBF81E090E0DF91A4
:1002E000CF911F910F91FF90EF900895F62E0B8DF7
:1002F00010E00F5F1F4F0F731127E02E8C8D8E11B2
:100300000CC00FB607FCFACFE889F989808185FF18
:10031000F5CFCE010E942D01F1CFEB8DEC0FFD2F1B
:10032000F11DE35AFF4FF0829FB7F8940B8FEA89D3
:10033000FB8980818062CFCFCF93DF93EC01888DE2
:100340008823B9F0AA89BB89E889F9898C9185FD50
:1003500003C0808186FD0DC00FB607FCF7CF8C91DE
:1003600085FFF2CF808185FFEDCFCE010E942D0168
:10037000E9CFDF91CF910895833081F028F4813067
:1003800099F08230A9F008958730A9F08830C9F03B
:100390008430B1F4809180008F7D03C08091800013
:1003A0008F7780938000089584B58F7784BD0895FA
:1003B00084B58F7DFBCF8091B0008F778093B000A4
:1003C00008958091B0008F7DF9CFCF93DF93282FD0
:1003D00030E0F901E255FF4F8491F901E656FF4FF5
:1003E000D491F901EA57FF4FC491CC23A1F08111B8
:1003F0000E94BC01EC2FF0E0EE0FFF1FE458FF4F0E
:10040000A591B491EC91ED2381E090E009F480E0B6
:10041000DF91CF91089580E090E0FACF862F0C9481
:10042000E5011F93CF93DF93282F30E0F901E255C8
:10043000FF4F8491F901E656FF4FD491F901EA5735
:10044000FF4FC491CC23A9F0162F81110E94BC014B
:10045000EC2FF0E0EE0FFF1FEE58FF4FA591B49187
:100460008FB7F894EC91111108C0D095DE23DC937E
:100470008FBFDF91CF911F910895DE2BF8CF862F8C
:10048000642F0C941102CF93DF9390E0FC01E656A9
:10049000FF4F24918A579F4FFC0184918823C9F014
:1004A00090E0880F991FFC01E859FF4FA591B49186
:1004B000FC01EE58FF4FC591D49161110DC09FB75B
:1004C000F8948C91209582238C938881282328830B
:1004D0009FBFDF91CF910895623051F49FB7F89498
:1004E0003C91822F809583238C93E8812E2BEFCF34
:1004F0008FB7F894EC912E2B2C938FBFEACF862FD9
:10050000642F0C9443022FB7F89460919901709175
:100510009A0180919B0190919C012FBF08950F93A8
:100520001F930E9483026093A7017093A801809398
:10053000A9019093AA018FE991E00E94FF0097FF23
:100540001DC00E9483020091A7011091A801209173
:10055000A9013091AA01601B710B820B930B0091D2
:10056000A3011091A4012091A5013091A60160176B
:10057000710782079307F8F28FEF9FEF1F910F919A
:1005800008950F931F93CF93DF93C82FD62F86E044
:10059000C89FF0011124E45CFD4F11A2878D90A14A
:1005A00081309105F1F058F082309105F1F1039717
:1005B00009F440C0DF91CF911F910F9108956623F8
:1005C000C9F361E070E08C2F0E948C000E948302CE
:1005D0006093940270939502809396029093970291
:1005E000E9CF0E948302009194021091950220911C
:1005F000960230919702AB01BC01401B510B620B7C
:10060000730B8091A6029091A702B0E0A0E084173E
:100610009507A607B70748F462E070E08C2FDF91DA
:10062000CF911F910F910C948C0063E070E0D11179
:10063000C1CFF4CF70E060E0F1CF089590E080E0AA
:100640000895FB0101900020E9F73197AF01461BA7
:10065000570BDC01ED91FC910280F381E02D0994B0
:10066000CF93DF93EC0160E08E810E94110261E084
:100670008E810E94110260E08E810E9411028BE83F
:1006800091E00197F1F7DF91CF910895CF92DF923A
:10069000EF92FF920F931F93CF93DF936C017C0136
:1006A00087E0E80EF11CD0E0C0E0062F10E0B801B2
:1006B0000C2E02C0759567950A94E2F76170F701F8
:1006C00081917F010E9411022196C430D10579F7F2
:1006D000C601DF91CF911F910F91FF90EF90DF90B6
:1006E000CF900C943003CF92DF92EF92FF920F9352
:1006F0001F93CF93DF93EC01F62E642F8C810E9421
:1007000011028D818F3F19F060E00E9411020F2DC0
:1007100010E08F8584FF25C06E0187E0C80ED11CD4
:10072000F12CE12CB8010E2C02C0759567950A9446
:10073000E2F76170F60181916F010E941102FFEFF3
:10074000EF1AFF0A88E0E816F10461F7CE01DF91A5
:10075000CF911F910F91FF90EF90DF90CF900C946D
:100760003003B80184E0759567958A95E1F7CE016D
:100770000E9446036F2DCE01DF91CF911F910F9103
:10078000FF90EF90DF90CF900C94460340E0682FED
:100790008BEA92E00C947303CF93DF93823029F4B9
:1007A0009091BA0298609093BA028093BE02109220
:1007B000BF0280E48093C00280E18093C10280E5A3
:1007C0008093C20261E08091AF020E944302809157
:1007D000B0028F3F19F061E00E94430261E0809116
:1007E000B1020E944302CBEAD2E09E012B5A324072
:1007F0008091BA0284FD0BC084E090E02196281716
:10080000390744F461E08E810E944302EECF88E014
:1008100090E0F4CF8BE39DE00197F1F760E08091E9
:10082000AF020E94110260E08091B1020E941102A9
:100830008091B0028F3F19F060E00E941102809118
:10084000BA0284FD39C063E08BEA92E00E9446035D
:10085000CBE4D6E4CE010197F1F763E08BEA92E0B6
:100860000E9446032197F1F763E08BEA92E00E9431
:10087000460383E592E00197F1F762E08BEA92E0AC
:100880000E9446038091BA0280620E94C60384E0FF
:100890008093BB028CE00E94C60381E00E94C603E5
:1008A0008BE39FE10197F1F782E08093BC0286E041
:1008B000DF91CF910C94C60380620E94C6038BE443
:1008C00096E40197F1F78091BA0280620E94C60314
:1008D00083E592E00197F1F78091BA0280620E946D
:1008E000C603D0CF9091BE02891710F08FEF890F09
:1008F000E82FF0E0E555FD4F848980680C94C6032D
:1009000041E00E94730381E090E008951F920F92EE
:100910000FB60F9211242F933F934F935F936F93D2
:100920007F938F939F93AF93BF93EF93FF938FE941
:1009300091E00E942D01FF91EF91BF91AF919F91A6
:100940008F917F916F915F914F913F912F910F9078
:100950000FBE0F901F9018951F920F920FB60F9217
:1009600011242F938F939F93EF93FF93E091AF0107
:10097000F091B0018081E091B501F091B60182FD66
:100980001BC090818091B8018F5F8F732091B90156
:10099000821741F0E091B801F0E0E156FE4F958FEB
:1009A0008093B801FF91EF919F918F912F910F90BC
:1009B0000FBE0F901F9018958081F4CF1F920F9259
:1009C0000FB60F9211242F933F938F939F93AF9362
:1009D000BF938091990190919A01A0919B01B09150
:1009E0009C013091980123E0230F2D3758F5019693
:1009F000A11DB11D209398018093990190939A01B4
:100A0000A0939B01B0939C018091940190919501DA
:100A1000A0919601B09197010196A11DB11D8093FF
:100A2000940190939501A0939601B0939701BF9183
:100A3000AF919F918F913F912F910F900FBE0F908B
:100A40001F90189526E8230F0296A11DB11DD2CF45
:100A50001092A2011092A10188EE93E0A0E0B0E014
:100A60008093A3019093A401A093A501B093A60144
:100A700087E191E09093A00180939F0185EC90E045
:100A80009093AC018093AB0184EC90E09093AE0125
:100A90008093AD0180EC90E09093B0018093AF0122
:100AA00081EC90E09093B2018093B10182EC90E0F0
:100AB0009093B4018093B30186EC90E09093B601DB
:100AC0008093B5011092B8011092B9011092BA0149
:100AD0001092BB011092AE021092AD0283E391E03E
:100AE0009093AC028093AB028EE08093AF028FEFC5
:100AF0008093B0028FE08093B10280E18093B202D4
:100B000081E18093B30282E18093B40283E1809318
:100B1000B5021092B6021092B7021092B80210926B
:100B2000B9021092BA0281E00E94CC0310923E02F8
:100B300010924202109241021092430289E291E027
:100B400090933D0280933C02E8E5F2E0108214822B
:100B500013821582369682E0E439F807B9F783E00C
:100B600091E090939F0280939E0280E091E09093A9
:100B7000A1028093A00284E08093A20283E080938C
:100B8000A30287E091E090939D0280939C028AE00B
:100B900090E09093A5028093A40284EF91E090935B
:100BA000A7028093A6021092AA021092A9021092A4
:100BB00098021092990210929A0210929B0210923F
:100BC000A8020895789484B5826084BD84B581605C
:100BD00084BD85B5826085BD85B5816085BD809108
:100BE0006E00816080936E00109281008091810080
:100BF0008260809381008091810081608093810078
:100C0000809180008160809380008091B100846039
:100C10008093B1008091B00081608093B00080919A
:100C20007A00846080937A0080917A008260809359
:100C30007A0080917A00816080937A0080917A00B6
:100C4000806880937A001092C100E091AF01F0912A
:100C5000B00182E08083E091AB01F091AC011082A1
:100C6000E091AD01F091AE018FEC80831092B7015D
:100C7000E091B301F091B40186E08083E091B1018D
:100C8000F091B201808180618083E091B101F091A7
:100C9000B201808188608083E091B101F091B2015E
:100CA000808180688083E091B101F091B201808100
:100CB0008F7D808382E00E94CC03C2E061E08C2FB4
:100CC0000E944302CF5FC930C9F7412C512C320139
:100CD000439468E7262E62E0362E01E010E021E022
:100CE0002093A8020E948302C0909802D09099029B
:100CF000E0909A02F0909B02AB01BC014C195D0997
:100D00006E097F098091A4029091A502B0E0A0E055
:100D100084179507A607B70708F073C1C0E0809154
:100D2000A202C81760F4E0919E02F0919F02EC0FBE
:100D3000F11D62E080810E944302CF5FF0CF912CD1
:100D40008091A302981608F05FC0E92CF12CE09185
:100D5000A002F091A102EE0DFF1D61E080810E94D2
:100D60004302E091A002F091A102EE0DFF1D60E0B0
:100D700080810E941102D301C201092C04C0880F96
:100D8000991FAA1FBB1F0A94D2F75C016C01C09483
:100D9000D094812C8091A2028816F8F4C82DD0E05E
:100DA000E0919E02F0919F02EC0FFD1F80810E9456
:100DB000E5012496CC0FDD1FC45CDD4F892B41F487
:100DC000888199818A299B29998388838394E2CF9A
:100DD000888199818C219D21F7CFE091A002F0912B
:100DE000A102EE0DFF1D61E080810E941102809141
:100DF000A0029091A102E80EF91E60E0F701808147
:100E00000E94430293949CCF3CE3E32E32E0F32E06
:100E1000E7018F8D98A1892B31F41C8E2FEF3FEFC6
:100E20003E8F2D8F19A226962C163D0691F7D12CB8
:100E30008091A202D81608F053C0C12C8D2D90E0ED
:100E4000880F991FFC01EC5BFD4F5F012091A3020D
:100E5000C21608F043C0F501608171810C2C02C0FC
:100E6000769567950A94E2F7D29E900111242C0D95
:100E7000311DECE3F2E080E0458D568D24173507F7
:100E800009F46CC18F5F36968A30B1F760FF24C0D9
:100E9000ECE3F2E090E080E0448D411118C0E09175
:100EA0009C02F0919D02E20FF31F608146E0489F93
:100EB000F001499FF00D1124E45CFD4F648F368FE3
:100EC000258F10A2178E61E00E94C10205C0019615
:100ED00036968A30910501F7C394B8CFD394A8CF42
:100EE000D12CF70181A18111D82EF6E0EF0EF11C73
:100EF000EC16FD06B1F70E9483026093980270938E
:100F0000990280939A0290939B02DD2009F479C0A4
:100F100080915D02882309F474C080915B029091F6
:100F20005C028130910509F06CC0C0915802C1117A
:100F30006BC08FE991E00E940D01181619060CF0A4
:100F400053C00E948F02FC0197FDE5C08D329105D0
:100F500021F0C0970A9708F0D7C0C12CD12C760198
:100F6000C0E0E130F105D9F0ED32F10509F4D1C06E
:100F7000CF01C0970A9798F4AAE0B0E0A7019601C4
:100F80000E94B0086F01FF0FEE08FF08C60ED71EC3
:100F9000E81EF91E20E3C21AD108E108F1088FE922
:100FA00091E00E94EB000E948F02FC01C0970A971B
:100FB000C0F2E130F105A9F2CC2341F0F094E094C5
:100FC000D094C094C11CD11CE11CF11C3BE5C3169C
:100FD000D10409F0A4C080E00E94720463E571E0CE
:100FE0008BEA92E00E942103E0E0F0E0EF2B09F4AD
:100FF00076CE0E941901882309F471CE0E94000068
:101000006ECE1092A80295CFC133D1F490939E0179
:1010100080939D016BE371E08FE991E00E942103D1
:1010200080919D0190919E01892B29F46C2F8FE96D
:1010300091E00E944F0110929E0110929D0179CF84
:10104000C23339F490939E0180939D016DE371E06A
:10105000E3CFC33339F490939E0180939D016FE3F6
:1010600071E0DACFC43339F490939E0180939D01EF
:1010700061E471E0D1CFC53339F410939E01009340
:101080009D0163E471E0C8CFC63339F410939E012B
:1010900000939D0165E471E0BFCFC73339F410932D
:1010A0009E0100939D0167E471E0B6CFC83339F427
:1010B00010939E0100939D0169E471E0ADCFC933A7
:1010C00039F410939E0100939D016BE471E0A4CF6D
:1010D000CA3239F410939E0100939D016DE471E0D2
:1010E0009BCFC03339F410939E0100939D016FE4B0
:1010F00071E092CFC33209F093CF10939E01009319
:101100009D0161E571E088CF8FE991E00E94EB00DD
:1011100018CFC1E044CFC12CD12C760157CF4AE57E
:10112000C416D10431F480E00E94720460E671E0DC
:1011300057CF85E6C816D10431F481E00E947204CD
:1011400061E771E04DCF94E6C916D10409F04CCFA8
:1011500081E00E94720460E871E042CF6170B4CE19
:101160000E94BB08A59F900DB49F900DA49F800D79
:10117000911D11240895A29FB001B39FC001A39FA8
:10118000700D811D1124911DB29F700D811D1124C0
:10119000911D0895EE0FFF1F0590F491E02D099425
:1011A000F894FFCF060708020304053132333435C3
:1011B000363738392A3023000000004F01AF00DCF9
:1011C000009C010D01EB00FF00000000007F023FCA
:1011D000020E02000000008004AF001E031D033158
:1011E0000032003300340035003600370038003953
:1011F000002A003000230047415320444554454312
:1012000054454400474153204E4F542044455445D3
:101210004354454400464C414D45204445544543C4
:1012200054454400464C414D45204E4F54204445C2
:081230005445435445440000FD
:107E0000112484B714BE81FFF0D085E080938100F7
:107E100082E08093C00088E18093C10086E0809377
:107E2000C20080E18093C4008EE0C9D0259A86E02C
:107E300020E33CEF91E0309385002093840096BBD3
:107E4000B09BFECF1D9AA8958150A9F7CC24DD24C4
:107E500088248394B5E0AB2EA1E19A2EF3E0BF2EE7
:107E6000A2D0813461F49FD0082FAFD0023811F036
:107E7000013811F484E001C083E08DD089C08234E0
:107E800011F484E103C0853419F485E0A6D080C0E4
:107E9000853579F488D0E82EFF2485D0082F10E0AE
:107EA000102F00270E291F29000F111F8ED06801E7
:107EB0006FC0863521F484E090D080E0DECF843638
:107EC00009F040C070D06FD0082F6DD080E0C81688
:107ED00080E7D80618F4F601B7BEE895C0E0D1E017
:107EE00062D089930C17E1F7F0E0CF16F0E7DF06D8
:107EF00018F0F601B7BEE89568D007B600FCFDCFD4
:107F0000A601A0E0B1E02C9130E011968C91119780
:107F100090E0982F8827822B932B1296FA010C0160
:107F200087BEE89511244E5F5F4FF1E0A038BF0790
:107F300051F7F601A7BEE89507B600FCFDCF97BE46
:107F4000E89526C08437B1F42ED02DD0F82E2BD052
:107F50003CD0F601EF2C8F010F5F1F4F84911BD097
:107F6000EA94F801C1F70894C11CD11CFA94CF0C13
:107F7000D11C0EC0853739F428D08EE10CD085E9AC
:107F80000AD08FE07ACF813511F488E018D01DD067
:107F900080E101D065CF982F8091C00085FFFCCF94
:107FA0009093C60008958091C00087FFFCCF809118
:107FB000C00084FD01C0A8958091C6000895E0E648
:107FC000F0E098E1908380830895EDDF803219F02E
:107FD00088E0F5DFFFCF84E1DECF1F93182FE3DFCA
:107FE0001150E9F7F2DF1F91089580E0E8DFEE27F6
:047FF000FF270994CA
:027FFE00040479
:00000001FF
