:020000040000FA
:100000000C9462000C948A000C948A000C948A0070
:100010000C948A000C948A000C948A000C948A0038
:100020000C948A000C948A000C948A000C948A0028
:100030000C948A000C948A000C948A000C948A0018
:100040000C94A9020C948A000C9419030C94F302EA
:100050000C948A000C948A000C948A000C948A00F8
:100060000C948A000C948A000000000024002700F1
:100070002A0000000000250028002B0000000000DE
:1000800023002600290004040404040404040202DA
:100090000202020203030303030301020408102007
:1000A0004080010204081020010204081020000012
:1000B0000008000201000003040700000000000027
:1000C0000000490511241FBECFEFD8E0DEBFCDBF31
:1000D00012E0A0E0B1E0E0E4FBE002C005900D9288
:1000E000AE3FB107D9F723E0AEEFB2E001C01D92F9
:1000F000AA3AB207E1F710E0C2E6D0E004C02197C7
:10010000FE010E949805C136D107C9F70E944B0332
:100110000C949E050C940000AF92BF92CF92DF9298
:10012000EF92FF920F931F93CF93DF936C017B01AC
:100130008B01040F151FEB015E01AE18BF08C0173D
:10014000D10759F06991D601ED91FC910190F081B0
:10015000E02DC6010995892B79F7C501DF91CF9173
:100160001F910F91FF90EF90DF90CF90BF90AF90D5
:100170000895FC01538D448D252F30E0842F90E0AD
:10018000821B930B541710F0CF9608950197089592
:10019000FC01918D828D981761F0A28DAE0FBF2F5B
:1001A000B11D5D968C91928D9F5F9F73928F90E0B1
:1001B00008958FEF9FEF0895FC01918D828D981720
:1001C00031F0828DE80FF11D858D90E008958FEF5D
:1001D0009FEF0895FC01918D228D892F90E0805C26
:1001E0009F4F821B91098F73992708958DE093E0AB
:1001F0000E94EA0021E0892B09F420E0822F089573
:1002000080E090E0892B29F00E94F60081110C9487
:1002100000000895FC01A48DA80FB92FB11DA35AA9
:10022000BF4F2C91848D90E001968F739927848F16
:10023000A689B7892C93A089B1898C918370806439
:100240008C93938D848D981306C00288F389E02DDA
:1002500080818F7D80830895EF92FF920F931F938B
:10026000CF93DF93EC0181E0888F9B8D8C8D981369
:100270001AC0E889F989808185FF15C09FB7F89475
:10028000EE89FF896083E889F989808183708064C1
:1002900080839FBF81E090E0DF91CF911F910F910C
:1002A000FF90EF900895F62E0B8D10E00F5F1F4F1B
:1002B0000F731127E02E8C8D8E110CC00FB607FC2A
:1002C000FACFE889F989808185FFF5CFCE010E94B8
:1002D0000A01F1CFEB8DEC0FFD2FF11DE35AFF4F1B
:1002E000F0829FB7F8940B8FEA89FB898081806246
:1002F000CFCFCF93DF93EC01888D8823B9F0AA8903
:10030000BB89E889F9898C9185FD03C0808186FDD0
:100310000DC00FB607FCF7CF8C9185FFF2CF80811F
:1003200085FFEDCFCE010E940A01E9CFDF91CF9189
:100330000895833081F028F4813099F08230A9F05B
:1003400008958730A9F08830C9F08430B1F48091E5
:1003500080008F7D03C0809180008F778093800024
:10036000089584B58F7784BD089584B58F7DFBCFC4
:100370008091B0008F778093B00008958091B00095
:100380008F7DF9CFCF93DF93282F30E0F901E2552D
:10039000FF4F8491F901E656FF4FD491F901EA57D6
:1003A000FF4FC491CC23A1F081110E949901EC2F41
:1003B000F0E0EE0FFF1FE458FF4FA591B491EC91D0
:1003C000ED2381E090E009F480E0DF91CF91089582
:1003D00080E090E0FACF1F93CF93DF93282F30E097
:1003E000F901E255FF4F8491F901E656FF4FD49190
:1003F000F901EA57FF4FC491CC23A9F0162F8111C0
:100400000E949901EC2FF0E0EE0FFF1FEE58FF4F16
:10041000A591B4918FB7F894EC91111108C0D095C3
:10042000DE23DC938FBFDF91CF911F910895DE2BE8
:10043000F8CFCF93DF9390E0FC01E656FF4F249175
:100440008A579F4FFC0184918823D1F090E0880F58
:10045000991FFC01E859FF4FA591B491FC01EE589A
:10046000FF4FC591D49161110EC09FB7F8948C9144
:10047000E22FE0958E238C932881E223E8839FBFAF
:10048000DF91CF9108958FB7F894EC91E22BEC9324
:100490008FBFF6CFFC0101900020E9F73197AF0143
:1004A000481B590BBC018DE093E00C948C0082E159
:1004B00091E00C944A02CF93DF930E944A02EC0130
:1004C0000E9457028C0F9D1FDF91CF910895CF920C
:1004D000DF92EF92FF920F931F93CF93DF93CDB7ED
:1004E000DEB7A1970FB6F894DEBF0FBECDBF9C015B
:1004F000990F440B550B19A28E010F5D1F4F8AE017
:10050000C82ED12CE12CF12CCA01B901A70196010A
:100510000E947605605DF80162938F012115310517
:100520004105510589F790E080E0309719F0CF013F
:100530000E944A02A1960FB6F894DEBF0FBECDBF4F
:10054000DF91CF911F910F91FF90EF90DF90CF90AF
:1005500008951F920F920FB60F9211242F933F937D
:100560008F939F93AF93BF938091090390910A0358
:10057000A0910B03B0910C033091080323E0230FEB
:100580002D3758F50196A11DB11D209308038093C6
:10059000090390930A03A0930B03B0930C0380917B
:1005A000040390910503A0910603B09107030196FF
:1005B000A11DB11D8093040390930503A09306032E
:1005C000B0930703BF91AF919F918F913F912F916E
:1005D0000F900FBE0F901F90189526E8230F0296DC
:1005E000A11DB11DD2CF1F920F920FB60F921124F1
:1005F0002F933F934F935F936F937F938F939F932B
:10060000AF93BF93EF93FF938DE093E00E940A01B5
:10061000FF91EF91BF91AF919F918F917F916F91DA
:100620005F914F913F912F910F900FBE0F901F90B0
:1006300018951F920F920FB60F9211242F938F933C
:100640009F93EF93FF93E0911D03F0911E03808130
:10065000E0912303F091240382FD1BC090818091DF
:1006600026038F5F8F7320912703821741F0E0915B
:100670002603F0E0E35FFC4F958F80932603FF9104
:10068000EF919F918F912F910F900FBE0F901F9020
:1006900018958081F4CF789484B5826084BD84B548
:1006A000816084BD85B5826085BD85B5816085BD6D
:1006B00080916E00816080936E0010928100809125
:1006C00081008260809381008091810081608093AD
:1006D0008100809180008160809380008091B100D2
:1006E00084608093B1008091B00081608093B000FD
:1006F00080917A00846080937A0080917A00826091
:1007000080937A0080917A00816080937A00809152
:100710007A00806880937A001092C100E0911D03F6
:10072000F0911E0382E08083E0911903F0911A0397
:100730001082E0911B03F0911C038FEC80831092D8
:100740002503E0912103F091220386E08083E0916C
:100750001F03F0912003808180618083E0911F035B
:10076000F0912003808188608083E0911F03F091E5
:100770002003808180688083E0911F03F091200333
:1007800080818F7D8083C2E061E08C2F0E941902FE
:10079000CF5FC930C9F760E089E00E94190260E0CC
:1007A0008AE00E94190261E08BE00E94190261E078
:1007B0008CE00E94190261E08DE00E94190261E064
:1007C0008EE00E94190285E191E00E944A020E9497
:1007D00057028AE391E00E945B020E94570280E088
:1007E000E82E80E0F82E01E010E08DE093E00E941A
:1007F000EA00892B69F18DE093E00E94C800C82FC0
:10080000682F8DE093E00E942C0181E591E00E9429
:100810004A02C13309F044C010930303009302035A
:1008200061E082E00E94EB018BE591E00E945B02B7
:100830008091020390910303892B21F485E792E0D4
:100840000E945B020E94570210920303109202035F
:1008500089E00E94C201EC01019709F0C9C08091B2
:10086000000390910103892B09F0C2C08BE590E051
:100870000E94670289E992E00E945B020E9457028F
:10088000D0930103C0930003E114F10409F4ADCF48
:100890000E94F600882309F4A8CF0E940000A5CF8B
:1008A000C23359F4109303030093020361E08DE017
:1008B0000E94EB018FE691E0B9CFC33359F4109356
:1008C00003030093020361E08EE00E94EB0189E8DC
:1008D00091E0ACCFC43359F41093030300930203A7
:1008E00060E082E00E94EB0186EA91E09FCFC53391
:1008F00059F4109303030093020360E08DE00E941B
:10090000EB0187EB91E092CFC63359F410930303C8
:100910000093020360E08EE00E94EB018EEC91E018
:1009200085CFC73379F4109303030093020360E08B
:100930008CE00E94EB0161E08BE00E94EB0188EE0D
:1009400091E074CFC83379F410930303009302034A
:1009500060E086E00E94EB0161E085E00E94EB012F
:100960008CEF91E063CFC93379F4109303030093C4
:10097000020360E087E00E94EB0161E088E00E94F2
:10098000EB0186E192E052CFCA3279F4109303036F
:100990000093020360E08CE00E94EB0160E08BE0DA
:1009A0000E94EB0183E392E041CFC03379F41093CE
:1009B00003030093020360E086E00E94EB0160E025
:1009C00085E00E94EB0184E492E030CFC33209F06D
:1009D0002FCF109303030093020360E087E00E948F
:1009E000EB0160E088E00E94EB018BE592E01ECF16
:1009F00089E00E94C201892B31F48091000390911B
:100A00000103019711F18AE00E94C201EC010197F4
:100A100059F18AE00E94C201892B09F035CF8091FB
:100A2000FE029091FF02019709F02ECF84E690E03C
:100A30000E94670281EE92E00E945B020E945702D0
:100A40001092FF021092FE021FCF8AE590E00E94F2
:100A500067028FEA92E00E945B020E9457021092A6
:100A600001031092000310CF8091FE029091FF02CB
:100A7000892B79F685E690E00E94670289EC92E086
:100A80000E945B020E945702D093FF02C093FE02B5
:100A9000FBCEEDE0F3E01382128288EE93E0A0E05B
:100AA000B0E084839583A683B78384E091E091834B
:100AB000808385EC90E09587848784EC90E097872D
:100AC000868780EC90E0918B808B81EC90E0938B1B
:100AD000828B82EC90E0958B848B86EC90E0978BF8
:100AE000868B118E128E138E148E0895A1E21A2E0B
:100AF000AA1BBB1BFD010DC0AA1FBB1FEE1FFF1FC2
:100B0000A217B307E407F50720F0A21BB30BE40B11
:100B1000F50B661F771F881F991F1A9469F7609558
:100B20007095809590959B01AC01BD01CF01089512
:100B3000EE0FFF1F0590F491E02D0994F894FFCF7C
:100B4000000000002C018C00B9007901EA00C80007
:100B5000DC000D0A0053696D756C6174696F6E205D
:100B6000486F6D65204175746F6D6174696F6E209B
:100B70007769746820584265650043455244415383
:100B80002042657273616D612044616D656C6961BD
:100B900000202020202D2D3E2020004C616D7075FE
:100BA000206461707572206D656E79616C61004CB6
:100BB000616D7075206B616D61722074696475720E
:100BC000206D656E79616C61004C616D707520728D
:100BD00075616E67206B656C7561726761206D650C
:100BE0006E79616C61004C616D7075206461707527
:100BF00072206D617469004C616D7075206B616D60
:100C00006172207469647572206D617469004C6151
:100C10006D7075207275616E67206B656C756172A1
:100C20006761206D617469004B6970617320646154
:100C3000707572206D656E79616C61004B697061D1
:100C400073206B616D6172207469647572206D65CB
:100C50006E79616C61004B69706173207275616EB1
:100C600067206B656C7561726761206D656E796177
:100C70006C61004B69706173206461707572206DE6
:100C8000617469004B69706173206B616D617220E2
:100C90007469647572206D617469004B6970617369
:100CA000207275616E67206B656C7561726761207B
:100CB0006D61746900506572696E7461682053617A
:100CC0006C61682E2053696C616B616E20756C617C
:100CD0006E6769202121212000202020202D2D3E1B
:100CE0002020474153204445544543544544002067
:100CF0002020202D2D3E2020474153204E4F5420B0
:100D0000444554454354454400202020202D2D3E89
:100D10002020464C414D45204445544543544544CC
:100D200000202020202D2D3E2020464C414D4520E6
:0E0D30004E4F54204445544543544544000062
:107E0000112484B714BE81FFF0D085E080938100F7
:107E100082E08093C00088E18093C10086E0809377
:107E2000C20080E18093C4008EE0C9D0259A86E02C
:107E300020E33CEF91E0309385002093840096BBD3
:107E4000B09BFECF1D9AA8958150A9F7CC24DD24C4
:107E500088248394B5E0AB2EA1E19A2EF3E0BF2EE7
:107E6000A2D0813461F49FD0082FAFD0023811F036
:107E7000013811F484E001C083E08DD089C08234E0
:107E800011F484E103C0853419F485E0A6D080C0E4
:107E9000853579F488D0E82EFF2485D0082F10E0AE
:107EA000102F00270E291F29000F111F8ED06801E7
:107EB0006FC0863521F484E090D080E0DECF843638
:107EC00009F040C070D06FD0082F6DD080E0C81688
:107ED00080E7D80618F4F601B7BEE895C0E0D1E017
:107EE00062D089930C17E1F7F0E0CF16F0E7DF06D8
:107EF00018F0F601B7BEE89568D007B600FCFDCFD4
:107F0000A601A0E0B1E02C9130E011968C91119780
:107F100090E0982F8827822B932B1296FA010C0160
:107F200087BEE89511244E5F5F4FF1E0A038BF0790
:107F300051F7F601A7BEE89507B600FCFDCF97BE46
:107F4000E89526C08437B1F42ED02DD0F82E2BD052
:107F50003CD0F601EF2C8F010F5F1F4F84911BD097
:107F6000EA94F801C1F70894C11CD11CFA94CF0C13
:107F7000D11C0EC0853739F428D08EE10CD085E9AC
:107F80000AD08FE07ACF813511F488E018D01DD067
:107F900080E101D065CF982F8091C00085FFFCCF94
:107FA0009093C60008958091C00087FFFCCF809118
:107FB000C00084FD01C0A8958091C6000895E0E648
:107FC000F0E098E1908380830895EDDF803219F02E
:107FD00088E0F5DFFFCF84E1DECF1F93182FE3DFCA
:107FE0001150E9F7F2DF1F91089580E0E8DFEE27F6
:047FF000FF270994CA
:027FFE00040479
:00000001FF
